{
  "contracts/DailyTournament.sol": {
    "DailyTournament": {
      "abi": [
        {
          "inputs": [
            {
              "internalType": "address",
              "name": "_cUSDAddress",
              "type": "address"
            }
          ],
          "stateMutability": "nonpayable",
          "type": "constructor"
        },
        {
          "anonymous": false,
          "inputs": [
            {
              "indexed": true,
              "internalType": "address",
              "name": "player",
              "type": "address"
            },
            {
              "indexed": false,
              "internalType": "uint256",
              "name": "dayId",
              "type": "uint256"
            },
            {
              "indexed": false,
              "internalType": "uint256",
              "name": "amount",
              "type": "uint256"
            }
          ],
          "name": "EntryPaid",
          "type": "event"
        },
        {
          "anonymous": false,
          "inputs": [
            {
              "indexed": true,
              "internalType": "address",
              "name": "owner",
              "type": "address"
            },
            {
              "indexed": false,
              "internalType": "uint256",
              "name": "amount",
              "type": "uint256"
            }
          ],
          "name": "HouseFeeWithdrawn",
          "type": "event"
        },
        {
          "anonymous": false,
          "inputs": [
            {
              "indexed": false,
              "internalType": "uint256",
              "name": "dayId",
              "type": "uint256"
            },
            {
              "indexed": false,
              "internalType": "uint256",
              "name": "totalPrizePool",
              "type": "uint256"
            }
          ],
          "name": "PrizesDistributed",
          "type": "event"
        },
        {
          "anonymous": false,
          "inputs": [
            {
              "indexed": true,
              "internalType": "address",
              "name": "player",
              "type": "address"
            },
            {
              "indexed": false,
              "internalType": "uint256",
              "name": "dayId",
              "type": "uint256"
            },
            {
              "indexed": false,
              "internalType": "uint256",
              "name": "score",
              "type": "uint256"
            },
            {
              "indexed": false,
              "internalType": "uint256",
              "name": "rank",
              "type": "uint256"
            }
          ],
          "name": "ScoreSubmitted",
          "type": "event"
        },
        {
          "anonymous": false,
          "inputs": [
            {
              "indexed": false,
              "internalType": "uint256",
              "name": "newDayId",
              "type": "uint256"
            },
            {
              "indexed": false,
              "internalType": "uint256",
              "name": "previousDayId",
              "type": "uint256"
            }
          ],
          "name": "TournamentReset",
          "type": "event"
        },
        {
          "inputs": [],
          "name": "ENTRY_FEE",
          "outputs": [
            {
              "internalType": "uint256",
              "name": "",
              "type": "uint256"
            }
          ],
          "stateMutability": "view",
          "type": "function"
        },
        {
          "inputs": [],
          "name": "HOUSE_FEE_PERCENT",
          "outputs": [
            {
              "internalType": "uint256",
              "name": "",
              "type": "uint256"
            }
          ],
          "stateMutability": "view",
          "type": "function"
        },
        {
          "inputs": [],
          "name": "PRIZE_POOL_PERCENT",
          "outputs": [
            {
              "internalType": "uint256",
              "name": "",
              "type": "uint256"
            }
          ],
          "stateMutability": "view",
          "type": "function"
        },
        {
          "inputs": [],
          "name": "RESET_HOUR_UTC",
          "outputs": [
            {
              "internalType": "uint256",
              "name": "",
              "type": "uint256"
            }
          ],
          "stateMutability": "view",
          "type": "function"
        },
        {
          "inputs": [],
          "name": "TOP_PLAYERS",
          "outputs": [
            {
              "internalType": "uint256",
              "name": "",
              "type": "uint256"
            }
          ],
          "stateMutability": "view",
          "type": "function"
        },
        {
          "inputs": [],
          "name": "cUSD",
          "outputs": [
            {
              "internalType": "contract IERC20",
              "name": "",
              "type": "address"
            }
          ],
          "stateMutability": "view",
          "type": "function"
        },
        {
          "inputs": [],
          "name": "currentDayId",
          "outputs": [
            {
              "internalType": "uint256",
              "name": "",
              "type": "uint256"
            }
          ],
          "stateMutability": "view",
          "type": "function"
        },
        {
          "inputs": [],
          "name": "distributePrizes",
          "outputs": [],
          "stateMutability": "nonpayable",
          "type": "function"
        },
        {
          "inputs": [],
          "name": "getContractBalance",
          "outputs": [
            {
              "internalType": "uint256",
              "name": "",
              "type": "uint256"
            }
          ],
          "stateMutability": "view",
          "type": "function"
        },
        {
          "inputs": [],
          "name": "getCurrentDayId",
          "outputs": [
            {
              "internalType": "uint256",
              "name": "",
              "type": "uint256"
            }
          ],
          "stateMutability": "view",
          "type": "function"
        },
        {
          "inputs": [],
          "name": "getCurrentLeaderboard",
          "outputs": [
            {
              "components": [
                {
                  "internalType": "address",
                  "name": "playerAddress",
                  "type": "address"
                },
                {
                  "internalType": "uint256",
                  "name": "score",
                  "type": "uint256"
                },
                {
                  "internalType": "uint256",
                  "name": "timestamp",
                  "type": "uint256"
                }
              ],
              "internalType": "struct DailyTournament.Player[10]",
              "name": "",
              "type": "tuple[10]"
            }
          ],
          "stateMutability": "view",
          "type": "function"
        },
        {
          "inputs": [],
          "name": "getMyScore",
          "outputs": [
            {
              "internalType": "uint256",
              "name": "",
              "type": "uint256"
            }
          ],
          "stateMutability": "view",
          "type": "function"
        },
        {
          "inputs": [
            {
              "internalType": "uint256",
              "name": "dayId",
              "type": "uint256"
            }
          ],
          "name": "getTournamentInfo",
          "outputs": [
            {
              "internalType": "uint256",
              "name": "totalPrizePool",
              "type": "uint256"
            },
            {
              "internalType": "uint256",
              "name": "totalEntries",
              "type": "uint256"
            },
            {
              "internalType": "bool",
              "name": "distributed",
              "type": "bool"
            },
            {
              "internalType": "uint256",
              "name": "houseFeeCollected",
              "type": "uint256"
            }
          ],
          "stateMutability": "view",
          "type": "function"
        },
        {
          "inputs": [
            {
              "internalType": "uint256",
              "name": "",
              "type": "uint256"
            },
            {
              "internalType": "address",
              "name": "",
              "type": "address"
            }
          ],
          "name": "hasPlayed",
          "outputs": [
            {
              "internalType": "bool",
              "name": "",
              "type": "bool"
            }
          ],
          "stateMutability": "view",
          "type": "function"
        },
        {
          "inputs": [],
          "name": "needsReset",
          "outputs": [
            {
              "internalType": "bool",
              "name": "",
              "type": "bool"
            }
          ],
          "stateMutability": "view",
          "type": "function"
        },
        {
          "inputs": [],
          "name": "owner",
          "outputs": [
            {
              "internalType": "address",
              "name": "",
              "type": "address"
            }
          ],
          "stateMutability": "view",
          "type": "function"
        },
        {
          "inputs": [],
          "name": "payEntry",
          "outputs": [],
          "stateMutability": "nonpayable",
          "type": "function"
        },
        {
          "inputs": [
            {
              "internalType": "uint256",
              "name": "",
              "type": "uint256"
            },
            {
              "internalType": "address",
              "name": "",
              "type": "address"
            }
          ],
          "name": "playerHighScores",
          "outputs": [
            {
              "internalType": "uint256",
              "name": "",
              "type": "uint256"
            }
          ],
          "stateMutability": "view",
          "type": "function"
        },
        {
          "inputs": [
            {
              "internalType": "uint256",
              "name": "",
              "type": "uint256"
            }
          ],
          "name": "prizePercentages",
          "outputs": [
            {
              "internalType": "uint256",
              "name": "",
              "type": "uint256"
            }
          ],
          "stateMutability": "view",
          "type": "function"
        },
        {
          "inputs": [],
          "name": "resetTournament",
          "outputs": [],
          "stateMutability": "nonpayable",
          "type": "function"
        },
        {
          "inputs": [
            {
              "internalType": "uint256",
              "name": "score",
              "type": "uint256"
            }
          ],
          "name": "submitScore",
          "outputs": [],
          "stateMutability": "nonpayable",
          "type": "function"
        },
        {
          "inputs": [],
          "name": "totalHouseFees",
          "outputs": [
            {
              "internalType": "uint256",
              "name": "",
              "type": "uint256"
            }
          ],
          "stateMutability": "view",
          "type": "function"
        },
        {
          "inputs": [
            {
              "internalType": "uint256",
              "name": "",
              "type": "uint256"
            }
          ],
          "name": "tournaments",
          "outputs": [
            {
              "internalType": "uint256",
              "name": "dayId",
              "type": "uint256"
            },
            {
              "internalType": "uint256",
              "name": "totalPrizePool",
              "type": "uint256"
            },
            {
              "internalType": "uint256",
              "name": "totalEntries",
              "type": "uint256"
            },
            {
              "internalType": "bool",
              "name": "distributed",
              "type": "bool"
            },
            {
              "internalType": "uint256",
              "name": "houseFeeCollected",
              "type": "uint256"
            }
          ],
          "stateMutability": "view",
          "type": "function"
        },
        {
          "inputs": [
            {
              "internalType": "address",
              "name": "newOwner",
              "type": "address"
            }
          ],
          "name": "transferOwnership",
          "outputs": [],
          "stateMutability": "nonpayable",
          "type": "function"
        },
        {
          "inputs": [],
          "name": "withdrawHouseFees",
          "outputs": [],
          "stateMutability": "nonpayable",
          "type": "function"
        }
      ],
      "evm": {
        "bytecode": {
          "linkReferences": {},
          "object": "6101e0604052610bb860a09081526107d060c0526105dc60e0526103e861010052610320610120526102586101405260966101608190526101808190526101a08190526101c05261005490600090600a610212565b5034801561006157600080fd5b506040516116e93803806116e98339810160408190526100809161026b565b6001600160a01b0381166100da5760405162461bcd60e51b815260206004820152601460248201527f496e76616c696420635553442061646472657373000000000000000000000000604482015260640160405180910390fd5b600a80546001600160a01b031916331790556001600160a01b038116608052610101610115565b600b81905561010f9061014b565b50610319565b6000428161012582610e106102b1565b9050600061013662015180836102ca565b61014390620151806102ec565b949350505050565b6000818152600d60205260408120828155600181018290556002810182905560218101805460ff1916905560228101829055905b600a81101561020d57604051806060016040528060006001600160a01b031681526020016000815260200160008152508260030182600a81106101c4576101c4610303565b82516003919091029190910180546001600160a01b0319166001600160a01b0390921691909117815560208201516001808301919091556040909201516002909101550161017f565b505050565b82600a8101928215610246579160200282015b82811115610246578251829061ffff16905591602001919060010190610225565b50610252929150610256565b5090565b5b808211156102525760008155600101610257565b60006020828403121561027d57600080fd5b81516001600160a01b038116811461029457600080fd5b9392505050565b634e487b7160e01b600052601160045260246000fd5b808201808211156102c4576102c461029b565b92915050565b6000826102e757634e487b7160e01b600052601260045260246000fd5b500490565b80820281158282048414176102c4576102c461029b565b634e487b7160e01b600052603260045260246000fd5b608051611399610350600039600081816101bb0152818161049c0152818161061d01528181610b380152610d4901526113996000f3fe608060405234801561001057600080fd5b50600436106101735760003560e01c8063a448bd23116100de578063cac766d211610097578063f1599f2c11610071578063f1599f2c146103b1578063f2fde38b146103d3578063f677b4d4146103e6578063f6d361cc146103ee57600080fd5b8063cac766d214610309578063d82ceb881461036b578063e22c2fd2146103a957600080fd5b8063a448bd23146102c2578063a6efd7eb146102d5578063a7fd35e7146102de578063adb9d54d146102e6578063aff0b297146102ee578063c424b3a81461030157600080fd5b80637ce52eb6116101305780637ce52eb614610284578063810df2db1461028e5780638da5cb5b14610296578063987c53a9146102a95780639be7b327146102b25780639d5098dc146102ba57600080fd5b80631dbd3381146101785780631fccf672146101b6578063491db668146101f55780635537be7f1461020a5780636f9fb98a146102125780637503e1b71461021a575b600080fd5b6101a361018636600461116b565b600e60209081526000928352604080842090915290825290205481565b6040519081526020015b60405180910390f35b6101dd7f000000000000000000000000000000000000000000000000000000000000000081565b6040516001600160a01b0390911681526020016101ad565b6101fd6103fd565b6040516101ad9190611197565b6101a3600581565b6101a3610484565b61025a6102283660046111eb565b600d602052600090815260409020805460018201546002830154602184015460229094015492939192909160ff169085565b6040805195865260208601949094529284019190915215156060830152608082015260a0016101ad565b61028c610514565b005b61028c6105df565b600a546101dd906001600160a01b031681565b6101a3600b5481565b6101a3601781565b6101a3600a81565b6101a36102d03660046111eb565b6107f9565b6101a3600c5481565b6101a3605f81565b6101a3610810565b61028c6102fc3660046111eb565b610846565b61028c6108e7565b6103456103173660046111eb565b6000908152600d602052604090206001810154600282015460218301546022909301549193909260ff169190565b6040805194855260208501939093529015159183019190915260608201526080016101ad565b61039961037936600461116b565b600f60209081526000928352604080842090915290825290205460ff1681565b60405190151581526020016101ad565b6103996109db565b600b546000908152600e602090815260408083203384529091529020546101a3565b61028c6103e1366004611204565b6109ee565b61028c610a90565b6101a3670de0b6b3a764000081565b6104056110fc565b600b546000908152600d6020526040808220815161014081019092529091600390910190600a90835b8282101561047b576040805160608101825260038402860180546001600160a01b03168252600180820154602080850191909152600290920154938301939093529083529201910161042e565b50505050905090565b6040516370a0823160e01b81523060048201526000907f00000000000000000000000000000000000000000000000000000000000000006001600160a01b0316906370a0823190602401602060405180830381865afa1580156104eb573d6000803e3d6000fd5b505050506040513d601f19601f8201168201806040525081019061050f9190611226565b905090565b61051c6109db565b61056d5760405162461bcd60e51b815260206004820152601760248201527f546f75726e616d656e74207374696c6c2061637469766500000000000000000060448201526064015b60405180910390fd5b600b546000908152600d602052604090206021015460ff16156105d25760405162461bcd60e51b815260206004820152601a60248201527f5072697a657320616c72656164792064697374726962757465640000000000006044820152606401610564565b6105dd600b54610c2c565b565b6105e76109db565b156105f4576105f46108e7565b6040516323b872dd60e01b8152336004820152306024820152670de0b6b3a764000060448201527f00000000000000000000000000000000000000000000000000000000000000006001600160a01b0316906323b872dd906064016020604051808303816000875af115801561066e573d6000803e3d6000fd5b505050506040513d601f19601f82011682018060405250810190610692919061123f565b6107045760405162461bcd60e51b815260206004820152603c60248201527f63555344207472616e73666572206661696c6564202d20656e7375726520796f60448201527f75206861766520617070726f7665642074686520636f6e7472616374000000006064820152608401610564565b600b546000908152600d6020526040812090606461072b6005670de0b6b3a7640000611277565b6107359190611294565b9050600061074b82670de0b6b3a76400006112b6565b90508083600101600082825461076191906112c9565b9091555050600283018054906000610778836112dc565b91905055508183602201600082825461079191906112c9565b9250508190555081600c60008282546107aa91906112c9565b9091555050600b5460408051918252670de0b6b3a7640000602083015233917fe19e8727dbf4671249bcf9d7a5aae1289bda1f8fb02a87cea4b35393ad86973a910160405180910390a2505050565b600081600a811061080957600080fd5b0154905081565b6000428161082082610e106112c9565b905060006108316201518083611294565b61083e9062015180611277565b949350505050565b600081116108965760405162461bcd60e51b815260206004820152601c60248201527f53636f7265206d7573742062652067726561746572207468616e2030000000006044820152606401610564565b600b546000908152600e602090815260408083203384529091529020548111156108e457600b546000908152600e602090815260408083203380855292529091208290556108e49082610e52565b50565b6108ef6109db565b61093b5760405162461bcd60e51b815260206004820152601f60248201527f43757272656e7420746f75726e616d656e74207374696c6c20616374697665006044820152606401610564565b600b546000908152600d602052604090206021015460ff161580156109735750600b546000908152600d602052604090206001015415155b1561098357610983600b54610c2c565b600b5461098e610810565b600b81905561099c90611035565b600b5460408051918252602082018390527f5f40d7a919db0886cd0e1a9532b184c6e7e3314f6a47020dc42228633ee926ce910160405180910390a150565b6000600b546109e8610810565b11905090565b600a546001600160a01b03163314610a185760405162461bcd60e51b8152600401610564906112f5565b6001600160a01b038116610a6e5760405162461bcd60e51b815260206004820181905260248201527f4e6577206f776e65722063616e6e6f74206265207a65726f20616464726573736044820152606401610564565b600a80546001600160a01b0319166001600160a01b0392909216919091179055565b600a546001600160a01b03163314610aba5760405162461bcd60e51b8152600401610564906112f5565b600c5480610b0a5760405162461bcd60e51b815260206004820152601960248201527f4e6f20686f757365206665657320746f207769746864726177000000000000006044820152606401610564565b6000600c55600a5460405163a9059cbb60e01b81526001600160a01b039182166004820152602481018390527f00000000000000000000000000000000000000000000000000000000000000009091169063a9059cbb906044016020604051808303816000875af1158015610b83573d6000803e3d6000fd5b505050506040513d601f19601f82011682018060405250810190610ba7919061123f565b610be75760405162461bcd60e51b815260206004820152601160248201527015da5d1a191c985dd85b0819985a5b1959607a1b6044820152606401610564565b600a546040518281526001600160a01b03909116907f19f7a31ae4185f3274e252a5a78ec36ba85c01300bc8a800d41d79be74662a8e9060200160405180910390a250565b6000818152600d60205260409020602181015460ff1615610c8f5760405162461bcd60e51b815260206004820152601a60248201527f5072697a657320616c72656164792064697374726962757465640000000000006044820152606401610564565b60018101546000819003610caf5750602101805460ff1916600117905550565b60005b600a811015610e045760008360030182600a8110610cd257610cd2611336565b60030201546001600160a01b0316905080610ced5750610e04565b6000612710600084600a8110610d0557610d05611336565b0154610d119086611277565b610d1b9190611294565b90508015610dfa5760405163a9059cbb60e01b81526001600160a01b038381166004830152602482018390527f0000000000000000000000000000000000000000000000000000000000000000169063a9059cbb906044016020604051808303816000875af1158015610d92573d6000803e3d6000fd5b505050506040513d601f19601f82011682018060405250810190610db6919061123f565b610dfa5760405162461bcd60e51b8152602060048201526015602482015274141c9a5e99481d1c985b9cd9995c8819985a5b1959605a1b6044820152606401610564565b5050600101610cb2565b5060218201805460ff1916600117905560408051848152602081018390527f329f5cd0d1a0c708183708da49f688d169bfd6e9203310c8d56d4d26c144fafe910160405180910390a1505050565b600b546000908152600d6020526040812090600a905b600a811015610ea5578260030181600a8110610e8657610e86611336565b6003020160010154841115610e9d57809150610ea5565b600101610e68565b50600a8103610eb45750505050565b6000610ec26001600a6112b6565b90505b81811115610f535760038301610edc6001836112b6565b600a8110610eec57610eec611336565b600302018360030182600a8110610f0557610f05611336565b82546003919091029190910180546001600160a01b0319166001600160a01b039092169190911781556001808301549082015560029182015491015580610f4b8161134c565b915050610ec5565b506040518060600160405280856001600160a01b03168152602001848152602001428152508260030182600a8110610f8d57610f8d611336565b6003020160008201518160000160006101000a8154816001600160a01b0302191690836001600160a01b031602179055506020820151816001015560408201518160020155905050836001600160a01b03167fc3d569bab9b8a4ed0f3f5808a8a5f9b046ac3e6b9b15607815ef8b40642a13d9600b548584600161101191906112c9565b6040805193845260208401929092529082015260600160405180910390a250505050565b6000818152600d60205260408120828155600181018290556002810182905560218101805460ff1916905560228101829055905b600a8110156110f757604051806060016040528060006001600160a01b031681526020016000815260200160008152508260030182600a81106110ae576110ae611336565b82516003919091029190910180546001600160a01b0319166001600160a01b03909216919091178155602082015160018083019190915560409092015160029091015501611069565b505050565b604051806101400160405280600a905b611139604051806060016040528060006001600160a01b0316815260200160008152602001600081525090565b81526020019060019003908161110c5790505090565b80356001600160a01b038116811461116657600080fd5b919050565b6000806040838503121561117e57600080fd5b8235915061118e6020840161114f565b90509250929050565b6103c08101818360005b600a8110156111e257815180516001600160a01b031684526020808201518186015260409182015191850191909152606090930192909101906001016111a1565b50505092915050565b6000602082840312156111fd57600080fd5b5035919050565b60006020828403121561121657600080fd5b61121f8261114f565b9392505050565b60006020828403121561123857600080fd5b5051919050565b60006020828403121561125157600080fd5b8151801515811461121f57600080fd5b634e487b7160e01b600052601160045260246000fd5b808202811582820484141761128e5761128e611261565b92915050565b6000826112b157634e487b7160e01b600052601260045260246000fd5b500490565b8181038181111561128e5761128e611261565b8082018082111561128e5761128e611261565b6000600182016112ee576112ee611261565b5060010190565b60208082526021908201527f4f6e6c79206f776e65722063616e2063616c6c20746869732066756e6374696f6040820152603760f91b606082015260800190565b634e487b7160e01b600052603260045260246000fd5b60008161135b5761135b611261565b50600019019056fea2646970667358221220480c3f66a3641941c089937492bcb020421ec9ad61df42d3b5a7689684b1590264736f6c634300081c0033",
          "opcodes": "PUSH2 0x1E0 PUSH1 0x40 MSTORE PUSH2 0xBB8 PUSH1 0xA0 SWAP1 DUP2 MSTORE PUSH2 0x7D0 PUSH1 0xC0 MSTORE PUSH2 0x5DC PUSH1 0xE0 MSTORE PUSH2 0x3E8 PUSH2 0x100 MSTORE PUSH2 0x320 PUSH2 0x120 MSTORE PUSH2 0x258 PUSH2 0x140 MSTORE PUSH1 0x96 PUSH2 0x160 DUP2 SWAP1 MSTORE PUSH2 0x180 DUP2 SWAP1 MSTORE PUSH2 0x1A0 DUP2 SWAP1 MSTORE PUSH2 0x1C0 MSTORE PUSH2 0x54 SWAP1 PUSH1 0x0 SWAP1 PUSH1 0xA PUSH2 0x212 JUMP JUMPDEST POP CALLVALUE DUP1 ISZERO PUSH2 0x61 JUMPI PUSH1 0x0 DUP1 REVERT JUMPDEST POP PUSH1 0x40 MLOAD PUSH2 0x16E9 CODESIZE SUB DUP1 PUSH2 0x16E9 DUP4 CODECOPY DUP2 ADD PUSH1 0x40 DUP2 SWAP1 MSTORE PUSH2 0x80 SWAP2 PUSH2 0x26B JUMP JUMPDEST PUSH1 0x1 PUSH1 0x1 PUSH1 0xA0 SHL SUB DUP2 AND PUSH2 0xDA JUMPI PUSH1 0x40 MLOAD PUSH3 0x461BCD PUSH1 0xE5 SHL DUP2 MSTORE PUSH1 0x20 PUSH1 0x4 DUP3 ADD MSTORE PUSH1 0x14 PUSH1 0x24 DUP3 ADD MSTORE PUSH32 0x496E76616C696420635553442061646472657373000000000000000000000000 PUSH1 0x44 DUP3 ADD MSTORE PUSH1 0x64 ADD PUSH1 0x40 MLOAD DUP1 SWAP2 SUB SWAP1 REVERT JUMPDEST PUSH1 0xA DUP1 SLOAD PUSH1 0x1 PUSH1 0x1 PUSH1 0xA0 SHL SUB NOT AND CALLER OR SWAP1 SSTORE PUSH1 0x1 PUSH1 0x1 PUSH1 0xA0 SHL SUB DUP2 AND PUSH1 0x80 MSTORE PUSH2 0x101 PUSH2 0x115 JUMP JUMPDEST PUSH1 0xB DUP2 SWAP1 SSTORE PUSH2 0x10F SWAP1 PUSH2 0x14B JUMP JUMPDEST POP PUSH2 0x319 JUMP JUMPDEST PUSH1 0x0 TIMESTAMP DUP2 PUSH2 0x125 DUP3 PUSH2 0xE10 PUSH2 0x2B1 JUMP JUMPDEST SWAP1 POP PUSH1 0x0 PUSH2 0x136 PUSH3 0x15180 DUP4 PUSH2 0x2CA JUMP JUMPDEST PUSH2 0x143 SWAP1 PUSH3 0x15180 PUSH2 0x2EC JUMP JUMPDEST SWAP5 SWAP4 POP POP POP POP JUMP JUMPDEST PUSH1 0x0 DUP2 DUP2 MSTORE PUSH1 0xD PUSH1 0x20 MSTORE PUSH1 0x40 DUP2 KECCAK256 DUP3 DUP2 SSTORE PUSH1 0x1 DUP2 ADD DUP3 SWAP1 SSTORE PUSH1 0x2 DUP2 ADD DUP3 SWAP1 SSTORE PUSH1 0x21 DUP2 ADD DUP1 SLOAD PUSH1 0xFF NOT AND SWAP1 SSTORE PUSH1 0x22 DUP2 ADD DUP3 SWAP1 SSTORE SWAP1 JUMPDEST PUSH1 0xA DUP2 LT ISZERO PUSH2 0x20D JUMPI PUSH1 0x40 MLOAD DUP1 PUSH1 0x60 ADD PUSH1 0x40 MSTORE DUP1 PUSH1 0x0 PUSH1 0x1 PUSH1 0x1 PUSH1 0xA0 SHL SUB AND DUP2 MSTORE PUSH1 0x20 ADD PUSH1 0x0 DUP2 MSTORE PUSH1 0x20 ADD PUSH1 0x0 DUP2 MSTORE POP DUP3 PUSH1 0x3 ADD DUP3 PUSH1 0xA DUP2 LT PUSH2 0x1C4 JUMPI PUSH2 0x1C4 PUSH2 0x303 JUMP JUMPDEST DUP3 MLOAD PUSH1 0x3 SWAP2 SWAP1 SWAP2 MUL SWAP2 SWAP1 SWAP2 ADD DUP1 SLOAD PUSH1 0x1 PUSH1 0x1 PUSH1 0xA0 SHL SUB NOT AND PUSH1 0x1 PUSH1 0x1 PUSH1 0xA0 SHL SUB SWAP1 SWAP3 AND SWAP2 SWAP1 SWAP2 OR DUP2 SSTORE PUSH1 0x20 DUP3 ADD MLOAD PUSH1 0x1 DUP1 DUP4 ADD SWAP2 SWAP1 SWAP2 SSTORE PUSH1 0x40 SWAP1 SWAP3 ADD MLOAD PUSH1 0x2 SWAP1 SWAP2 ADD SSTORE ADD PUSH2 0x17F JUMP JUMPDEST POP POP POP JUMP JUMPDEST DUP3 PUSH1 0xA DUP2 ADD SWAP3 DUP3 ISZERO PUSH2 0x246 JUMPI SWAP2 PUSH1 0x20 MUL DUP3 ADD JUMPDEST DUP3 DUP2 GT ISZERO PUSH2 0x246 JUMPI DUP3 MLOAD DUP3 SWAP1 PUSH2 0xFFFF AND SWAP1 SSTORE SWAP2 PUSH1 0x20 ADD SWAP2 SWAP1 PUSH1 0x1 ADD SWAP1 PUSH2 0x225 JUMP JUMPDEST POP PUSH2 0x252 SWAP3 SWAP2 POP PUSH2 0x256 JUMP JUMPDEST POP SWAP1 JUMP JUMPDEST JUMPDEST DUP1 DUP3 GT ISZERO PUSH2 0x252 JUMPI PUSH1 0x0 DUP2 SSTORE PUSH1 0x1 ADD PUSH2 0x257 JUMP JUMPDEST PUSH1 0x0 PUSH1 0x20 DUP3 DUP5 SUB SLT ISZERO PUSH2 0x27D JUMPI PUSH1 0x0 DUP1 REVERT JUMPDEST DUP2 MLOAD PUSH1 0x1 PUSH1 0x1 PUSH1 0xA0 SHL SUB DUP2 AND DUP2 EQ PUSH2 0x294 JUMPI PUSH1 0x0 DUP1 REVERT JUMPDEST SWAP4 SWAP3 POP POP POP JUMP JUMPDEST PUSH4 0x4E487B71 PUSH1 0xE0 SHL PUSH1 0x0 MSTORE PUSH1 0x11 PUSH1 0x4 MSTORE PUSH1 0x24 PUSH1 0x0 REVERT JUMPDEST DUP1 DUP3 ADD DUP1 DUP3 GT ISZERO PUSH2 0x2C4 JUMPI PUSH2 0x2C4 PUSH2 0x29B JUMP JUMPDEST SWAP3 SWAP2 POP POP JUMP JUMPDEST PUSH1 0x0 DUP3 PUSH2 0x2E7 JUMPI PUSH4 0x4E487B71 PUSH1 0xE0 SHL PUSH1 0x0 MSTORE PUSH1 0x12 PUSH1 0x4 MSTORE PUSH1 0x24 PUSH1 0x0 REVERT JUMPDEST POP DIV SWAP1 JUMP JUMPDEST DUP1 DUP3 MUL DUP2 ISZERO DUP3 DUP3 DIV DUP5 EQ OR PUSH2 0x2C4 JUMPI PUSH2 0x2C4 PUSH2 0x29B JUMP JUMPDEST PUSH4 0x4E487B71 PUSH1 0xE0 SHL PUSH1 0x0 MSTORE PUSH1 0x32 PUSH1 0x4 MSTORE PUSH1 0x24 PUSH1 0x0 REVERT JUMPDEST PUSH1 0x80 MLOAD PUSH2 0x1399 PUSH2 0x350 PUSH1 0x0 CODECOPY PUSH1 0x0 DUP2 DUP2 PUSH2 0x1BB ADD MSTORE DUP2 DUP2 PUSH2 0x49C ADD MSTORE DUP2 DUP2 PUSH2 0x61D ADD MSTORE DUP2 DUP2 PUSH2 0xB38 ADD MSTORE PUSH2 0xD49 ADD MSTORE PUSH2 0x1399 PUSH1 0x0 RETURN INVALID PUSH1 0x80 PUSH1 0x40 MSTORE CALLVALUE DUP1 ISZERO PUSH2 0x10 JUMPI PUSH1 0x0 DUP1 REVERT JUMPDEST POP PUSH1 0x4 CALLDATASIZE LT PUSH2 0x173 JUMPI PUSH1 0x0 CALLDATALOAD PUSH1 0xE0 SHR DUP1 PUSH4 0xA448BD23 GT PUSH2 0xDE JUMPI DUP1 PUSH4 0xCAC766D2 GT PUSH2 0x97 JUMPI DUP1 PUSH4 0xF1599F2C GT PUSH2 0x71 JUMPI DUP1 PUSH4 0xF1599F2C EQ PUSH2 0x3B1 JUMPI DUP1 PUSH4 0xF2FDE38B EQ PUSH2 0x3D3 JUMPI DUP1 PUSH4 0xF677B4D4 EQ PUSH2 0x3E6 JUMPI DUP1 PUSH4 0xF6D361CC EQ PUSH2 0x3EE JUMPI PUSH1 0x0 DUP1 REVERT JUMPDEST DUP1 PUSH4 0xCAC766D2 EQ PUSH2 0x309 JUMPI DUP1 PUSH4 0xD82CEB88 EQ PUSH2 0x36B JUMPI DUP1 PUSH4 0xE22C2FD2 EQ PUSH2 0x3A9 JUMPI PUSH1 0x0 DUP1 REVERT JUMPDEST DUP1 PUSH4 0xA448BD23 EQ PUSH2 0x2C2 JUMPI DUP1 PUSH4 0xA6EFD7EB EQ PUSH2 0x2D5 JUMPI DUP1 PUSH4 0xA7FD35E7 EQ PUSH2 0x2DE JUMPI DUP1 PUSH4 0xADB9D54D EQ PUSH2 0x2E6 JUMPI DUP1 PUSH4 0xAFF0B297 EQ PUSH2 0x2EE JUMPI DUP1 PUSH4 0xC424B3A8 EQ PUSH2 0x301 JUMPI PUSH1 0x0 DUP1 REVERT JUMPDEST DUP1 PUSH4 0x7CE52EB6 GT PUSH2 0x130 JUMPI DUP1 PUSH4 0x7CE52EB6 EQ PUSH2 0x284 JUMPI DUP1 PUSH4 0x810DF2DB EQ PUSH2 0x28E JUMPI DUP1 PUSH4 0x8DA5CB5B EQ PUSH2 0x296 JUMPI DUP1 PUSH4 0x987C53A9 EQ PUSH2 0x2A9 JUMPI DUP1 PUSH4 0x9BE7B327 EQ PUSH2 0x2B2 JUMPI DUP1 PUSH4 0x9D5098DC EQ PUSH2 0x2BA JUMPI PUSH1 0x0 DUP1 REVERT JUMPDEST DUP1 PUSH4 0x1DBD3381 EQ PUSH2 0x178 JUMPI DUP1 PUSH4 0x1FCCF672 EQ PUSH2 0x1B6 JUMPI DUP1 PUSH4 0x491DB668 EQ PUSH2 0x1F5 JUMPI DUP1 PUSH4 0x5537BE7F EQ PUSH2 0x20A JUMPI DUP1 PUSH4 0x6F9FB98A EQ PUSH2 0x212 JUMPI DUP1 PUSH4 0x7503E1B7 EQ PUSH2 0x21A JUMPI JUMPDEST PUSH1 0x0 DUP1 REVERT JUMPDEST PUSH2 0x1A3 PUSH2 0x186 CALLDATASIZE PUSH1 0x4 PUSH2 0x116B JUMP JUMPDEST PUSH1 0xE PUSH1 0x20 SWAP1 DUP2 MSTORE PUSH1 0x0 SWAP3 DUP4 MSTORE PUSH1 0x40 DUP1 DUP5 KECCAK256 SWAP1 SWAP2 MSTORE SWAP1 DUP3 MSTORE SWAP1 KECCAK256 SLOAD DUP2 JUMP JUMPDEST PUSH1 0x40 MLOAD SWAP1 DUP2 MSTORE PUSH1 0x20 ADD JUMPDEST PUSH1 0x40 MLOAD DUP1 SWAP2 SUB SWAP1 RETURN JUMPDEST PUSH2 0x1DD PUSH32 0x0 DUP2 JUMP JUMPDEST PUSH1 0x40 MLOAD PUSH1 0x1 PUSH1 0x1 PUSH1 0xA0 SHL SUB SWAP1 SWAP2 AND DUP2 MSTORE PUSH1 0x20 ADD PUSH2 0x1AD JUMP JUMPDEST PUSH2 0x1FD PUSH2 0x3FD JUMP JUMPDEST PUSH1 0x40 MLOAD PUSH2 0x1AD SWAP2 SWAP1 PUSH2 0x1197 JUMP JUMPDEST PUSH2 0x1A3 PUSH1 0x5 DUP2 JUMP JUMPDEST PUSH2 0x1A3 PUSH2 0x484 JUMP JUMPDEST PUSH2 0x25A PUSH2 0x228 CALLDATASIZE PUSH1 0x4 PUSH2 0x11EB JUMP JUMPDEST PUSH1 0xD PUSH1 0x20 MSTORE PUSH1 0x0 SWAP1 DUP2 MSTORE PUSH1 0x40 SWAP1 KECCAK256 DUP1 SLOAD PUSH1 0x1 DUP3 ADD SLOAD PUSH1 0x2 DUP4 ADD SLOAD PUSH1 0x21 DUP5 ADD SLOAD PUSH1 0x22 SWAP1 SWAP5 ADD SLOAD SWAP3 SWAP4 SWAP2 SWAP3 SWAP1 SWAP2 PUSH1 0xFF AND SWAP1 DUP6 JUMP JUMPDEST PUSH1 0x40 DUP1 MLOAD SWAP6 DUP7 MSTORE PUSH1 0x20 DUP7 ADD SWAP5 SWAP1 SWAP5 MSTORE SWAP3 DUP5 ADD SWAP2 SWAP1 SWAP2 MSTORE ISZERO ISZERO PUSH1 0x60 DUP4 ADD MSTORE PUSH1 0x80 DUP3 ADD MSTORE PUSH1 0xA0 ADD PUSH2 0x1AD JUMP JUMPDEST PUSH2 0x28C PUSH2 0x514 JUMP JUMPDEST STOP JUMPDEST PUSH2 0x28C PUSH2 0x5DF JUMP JUMPDEST PUSH1 0xA SLOAD PUSH2 0x1DD SWAP1 PUSH1 0x1 PUSH1 0x1 PUSH1 0xA0 SHL SUB AND DUP2 JUMP JUMPDEST PUSH2 0x1A3 PUSH1 0xB SLOAD DUP2 JUMP JUMPDEST PUSH2 0x1A3 PUSH1 0x17 DUP2 JUMP JUMPDEST PUSH2 0x1A3 PUSH1 0xA DUP2 JUMP JUMPDEST PUSH2 0x1A3 PUSH2 0x2D0 CALLDATASIZE PUSH1 0x4 PUSH2 0x11EB JUMP JUMPDEST PUSH2 0x7F9 JUMP JUMPDEST PUSH2 0x1A3 PUSH1 0xC SLOAD DUP2 JUMP JUMPDEST PUSH2 0x1A3 PUSH1 0x5F DUP2 JUMP JUMPDEST PUSH2 0x1A3 PUSH2 0x810 JUMP JUMPDEST PUSH2 0x28C PUSH2 0x2FC CALLDATASIZE PUSH1 0x4 PUSH2 0x11EB JUMP JUMPDEST PUSH2 0x846 JUMP JUMPDEST PUSH2 0x28C PUSH2 0x8E7 JUMP JUMPDEST PUSH2 0x345 PUSH2 0x317 CALLDATASIZE PUSH1 0x4 PUSH2 0x11EB JUMP JUMPDEST PUSH1 0x0 SWAP1 DUP2 MSTORE PUSH1 0xD PUSH1 0x20 MSTORE PUSH1 0x40 SWAP1 KECCAK256 PUSH1 0x1 DUP2 ADD SLOAD PUSH1 0x2 DUP3 ADD SLOAD PUSH1 0x21 DUP4 ADD SLOAD PUSH1 0x22 SWAP1 SWAP4 ADD SLOAD SWAP2 SWAP4 SWAP1 SWAP3 PUSH1 0xFF AND SWAP2 SWAP1 JUMP JUMPDEST PUSH1 0x40 DUP1 MLOAD SWAP5 DUP6 MSTORE PUSH1 0x20 DUP6 ADD SWAP4 SWAP1 SWAP4 MSTORE SWAP1 ISZERO ISZERO SWAP2 DUP4 ADD SWAP2 SWAP1 SWAP2 MSTORE PUSH1 0x60 DUP3 ADD MSTORE PUSH1 0x80 ADD PUSH2 0x1AD JUMP JUMPDEST PUSH2 0x399 PUSH2 0x379 CALLDATASIZE PUSH1 0x4 PUSH2 0x116B JUMP JUMPDEST PUSH1 0xF PUSH1 0x20 SWAP1 DUP2 MSTORE PUSH1 0x0 SWAP3 DUP4 MSTORE PUSH1 0x40 DUP1 DUP5 KECCAK256 SWAP1 SWAP2 MSTORE SWAP1 DUP3 MSTORE SWAP1 KECCAK256 SLOAD PUSH1 0xFF AND DUP2 JUMP JUMPDEST PUSH1 0x40 MLOAD SWAP1 ISZERO ISZERO DUP2 MSTORE PUSH1 0x20 ADD PUSH2 0x1AD JUMP JUMPDEST PUSH2 0x399 PUSH2 0x9DB JUMP JUMPDEST PUSH1 0xB SLOAD PUSH1 0x0 SWAP1 DUP2 MSTORE PUSH1 0xE PUSH1 0x20 SWAP1 DUP2 MSTORE PUSH1 0x40 DUP1 DUP4 KECCAK256 CALLER DUP5 MSTORE SWAP1 SWAP2 MSTORE SWAP1 KECCAK256 SLOAD PUSH2 0x1A3 JUMP JUMPDEST PUSH2 0x28C PUSH2 0x3E1 CALLDATASIZE PUSH1 0x4 PUSH2 0x1204 JUMP JUMPDEST PUSH2 0x9EE JUMP JUMPDEST PUSH2 0x28C PUSH2 0xA90 JUMP JUMPDEST PUSH2 0x1A3 PUSH8 0xDE0B6B3A7640000 DUP2 JUMP JUMPDEST PUSH2 0x405 PUSH2 0x10FC JUMP JUMPDEST PUSH1 0xB SLOAD PUSH1 0x0 SWAP1 DUP2 MSTORE PUSH1 0xD PUSH1 0x20 MSTORE PUSH1 0x40 DUP1 DUP3 KECCAK256 DUP2 MLOAD PUSH2 0x140 DUP2 ADD SWAP1 SWAP3 MSTORE SWAP1 SWAP2 PUSH1 0x3 SWAP1 SWAP2 ADD SWAP1 PUSH1 0xA SWAP1 DUP4 JUMPDEST DUP3 DUP3 LT ISZERO PUSH2 0x47B JUMPI PUSH1 0x40 DUP1 MLOAD PUSH1 0x60 DUP2 ADD DUP3 MSTORE PUSH1 0x3 DUP5 MUL DUP7 ADD DUP1 SLOAD PUSH1 0x1 PUSH1 0x1 PUSH1 0xA0 SHL SUB AND DUP3 MSTORE PUSH1 0x1 DUP1 DUP3 ADD SLOAD PUSH1 0x20 DUP1 DUP6 ADD SWAP2 SWAP1 SWAP2 MSTORE PUSH1 0x2 SWAP1 SWAP3 ADD SLOAD SWAP4 DUP4 ADD SWAP4 SWAP1 SWAP4 MSTORE SWAP1 DUP4 MSTORE SWAP3 ADD SWAP2 ADD PUSH2 0x42E JUMP JUMPDEST POP POP POP POP SWAP1 POP SWAP1 JUMP JUMPDEST PUSH1 0x40 MLOAD PUSH4 0x70A08231 PUSH1 0xE0 SHL DUP2 MSTORE ADDRESS PUSH1 0x4 DUP3 ADD MSTORE PUSH1 0x0 SWAP1 PUSH32 0x0 PUSH1 0x1 PUSH1 0x1 PUSH1 0xA0 SHL SUB AND SWAP1 PUSH4 0x70A08231 SWAP1 PUSH1 0x24 ADD PUSH1 0x20 PUSH1 0x40 MLOAD DUP1 DUP4 SUB DUP2 DUP7 GAS STATICCALL ISZERO DUP1 ISZERO PUSH2 0x4EB JUMPI RETURNDATASIZE PUSH1 0x0 DUP1 RETURNDATACOPY RETURNDATASIZE PUSH1 0x0 REVERT JUMPDEST POP POP POP POP PUSH1 0x40 MLOAD RETURNDATASIZE PUSH1 0x1F NOT PUSH1 0x1F DUP3 ADD AND DUP3 ADD DUP1 PUSH1 0x40 MSTORE POP DUP2 ADD SWAP1 PUSH2 0x50F SWAP2 SWAP1 PUSH2 0x1226 JUMP JUMPDEST SWAP1 POP SWAP1 JUMP JUMPDEST PUSH2 0x51C PUSH2 0x9DB JUMP JUMPDEST PUSH2 0x56D JUMPI PUSH1 0x40 MLOAD PUSH3 0x461BCD PUSH1 0xE5 SHL DUP2 MSTORE PUSH1 0x20 PUSH1 0x4 DUP3 ADD MSTORE PUSH1 0x17 PUSH1 0x24 DUP3 ADD MSTORE PUSH32 0x546F75726E616D656E74207374696C6C20616374697665000000000000000000 PUSH1 0x44 DUP3 ADD MSTORE PUSH1 0x64 ADD JUMPDEST PUSH1 0x40 MLOAD DUP1 SWAP2 SUB SWAP1 REVERT JUMPDEST PUSH1 0xB SLOAD PUSH1 0x0 SWAP1 DUP2 MSTORE PUSH1 0xD PUSH1 0x20 MSTORE PUSH1 0x40 SWAP1 KECCAK256 PUSH1 0x21 ADD SLOAD PUSH1 0xFF AND ISZERO PUSH2 0x5D2 JUMPI PUSH1 0x40 MLOAD PUSH3 0x461BCD PUSH1 0xE5 SHL DUP2 MSTORE PUSH1 0x20 PUSH1 0x4 DUP3 ADD MSTORE PUSH1 0x1A PUSH1 0x24 DUP3 ADD MSTORE PUSH32 0x5072697A657320616C7265616479206469737472696275746564000000000000 PUSH1 0x44 DUP3 ADD MSTORE PUSH1 0x64 ADD PUSH2 0x564 JUMP JUMPDEST PUSH2 0x5DD PUSH1 0xB SLOAD PUSH2 0xC2C JUMP JUMPDEST JUMP JUMPDEST PUSH2 0x5E7 PUSH2 0x9DB JUMP JUMPDEST ISZERO PUSH2 0x5F4 JUMPI PUSH2 0x5F4 PUSH2 0x8E7 JUMP JUMPDEST PUSH1 0x40 MLOAD PUSH4 0x23B872DD PUSH1 0xE0 SHL DUP2 MSTORE CALLER PUSH1 0x4 DUP3 ADD MSTORE ADDRESS PUSH1 0x24 DUP3 ADD MSTORE PUSH8 0xDE0B6B3A7640000 PUSH1 0x44 DUP3 ADD MSTORE PUSH32 0x0 PUSH1 0x1 PUSH1 0x1 PUSH1 0xA0 SHL SUB AND SWAP1 PUSH4 0x23B872DD SWAP1 PUSH1 0x64 ADD PUSH1 0x20 PUSH1 0x40 MLOAD DUP1 DUP4 SUB DUP2 PUSH1 0x0 DUP8 GAS CALL ISZERO DUP1 ISZERO PUSH2 0x66E JUMPI RETURNDATASIZE PUSH1 0x0 DUP1 RETURNDATACOPY RETURNDATASIZE PUSH1 0x0 REVERT JUMPDEST POP POP POP POP PUSH1 0x40 MLOAD RETURNDATASIZE PUSH1 0x1F NOT PUSH1 0x1F DUP3 ADD AND DUP3 ADD DUP1 PUSH1 0x40 MSTORE POP DUP2 ADD SWAP1 PUSH2 0x692 SWAP2 SWAP1 PUSH2 0x123F JUMP JUMPDEST PUSH2 0x704 JUMPI PUSH1 0x40 MLOAD PUSH3 0x461BCD PUSH1 0xE5 SHL DUP2 MSTORE PUSH1 0x20 PUSH1 0x4 DUP3 ADD MSTORE PUSH1 0x3C PUSH1 0x24 DUP3 ADD MSTORE PUSH32 0x63555344207472616E73666572206661696C6564202D20656E7375726520796F PUSH1 0x44 DUP3 ADD MSTORE PUSH32 0x75206861766520617070726F7665642074686520636F6E747261637400000000 PUSH1 0x64 DUP3 ADD MSTORE PUSH1 0x84 ADD PUSH2 0x564 JUMP JUMPDEST PUSH1 0xB SLOAD PUSH1 0x0 SWAP1 DUP2 MSTORE PUSH1 0xD PUSH1 0x20 MSTORE PUSH1 0x40 DUP2 KECCAK256 SWAP1 PUSH1 0x64 PUSH2 0x72B PUSH1 0x5 PUSH8 0xDE0B6B3A7640000 PUSH2 0x1277 JUMP JUMPDEST PUSH2 0x735 SWAP2 SWAP1 PUSH2 0x1294 JUMP JUMPDEST SWAP1 POP PUSH1 0x0 PUSH2 0x74B DUP3 PUSH8 0xDE0B6B3A7640000 PUSH2 0x12B6 JUMP JUMPDEST SWAP1 POP DUP1 DUP4 PUSH1 0x1 ADD PUSH1 0x0 DUP3 DUP3 SLOAD PUSH2 0x761 SWAP2 SWAP1 PUSH2 0x12C9 JUMP JUMPDEST SWAP1 SWAP2 SSTORE POP POP PUSH1 0x2 DUP4 ADD DUP1 SLOAD SWAP1 PUSH1 0x0 PUSH2 0x778 DUP4 PUSH2 0x12DC JUMP JUMPDEST SWAP2 SWAP1 POP SSTORE POP DUP2 DUP4 PUSH1 0x22 ADD PUSH1 0x0 DUP3 DUP3 SLOAD PUSH2 0x791 SWAP2 SWAP1 PUSH2 0x12C9 JUMP JUMPDEST SWAP3 POP POP DUP2 SWAP1 SSTORE POP DUP2 PUSH1 0xC PUSH1 0x0 DUP3 DUP3 SLOAD PUSH2 0x7AA SWAP2 SWAP1 PUSH2 0x12C9 JUMP JUMPDEST SWAP1 SWAP2 SSTORE POP POP PUSH1 0xB SLOAD PUSH1 0x40 DUP1 MLOAD SWAP2 DUP3 MSTORE PUSH8 0xDE0B6B3A7640000 PUSH1 0x20 DUP4 ADD MSTORE CALLER SWAP2 PUSH32 0xE19E8727DBF4671249BCF9D7A5AAE1289BDA1F8FB02A87CEA4B35393AD86973A SWAP2 ADD PUSH1 0x40 MLOAD DUP1 SWAP2 SUB SWAP1 LOG2 POP POP POP JUMP JUMPDEST PUSH1 0x0 DUP2 PUSH1 0xA DUP2 LT PUSH2 0x809 JUMPI PUSH1 0x0 DUP1 REVERT JUMPDEST ADD SLOAD SWAP1 POP DUP2 JUMP JUMPDEST PUSH1 0x0 TIMESTAMP DUP2 PUSH2 0x820 DUP3 PUSH2 0xE10 PUSH2 0x12C9 JUMP JUMPDEST SWAP1 POP PUSH1 0x0 PUSH2 0x831 PUSH3 0x15180 DUP4 PUSH2 0x1294 JUMP JUMPDEST PUSH2 0x83E SWAP1 PUSH3 0x15180 PUSH2 0x1277 JUMP JUMPDEST SWAP5 SWAP4 POP POP POP POP JUMP JUMPDEST PUSH1 0x0 DUP2 GT PUSH2 0x896 JUMPI PUSH1 0x40 MLOAD PUSH3 0x461BCD PUSH1 0xE5 SHL DUP2 MSTORE PUSH1 0x20 PUSH1 0x4 DUP3 ADD MSTORE PUSH1 0x1C PUSH1 0x24 DUP3 ADD MSTORE PUSH32 0x53636F7265206D7573742062652067726561746572207468616E203000000000 PUSH1 0x44 DUP3 ADD MSTORE PUSH1 0x64 ADD PUSH2 0x564 JUMP JUMPDEST PUSH1 0xB SLOAD PUSH1 0x0 SWAP1 DUP2 MSTORE PUSH1 0xE PUSH1 0x20 SWAP1 DUP2 MSTORE PUSH1 0x40 DUP1 DUP4 KECCAK256 CALLER DUP5 MSTORE SWAP1 SWAP2 MSTORE SWAP1 KECCAK256 SLOAD DUP2 GT ISZERO PUSH2 0x8E4 JUMPI PUSH1 0xB SLOAD PUSH1 0x0 SWAP1 DUP2 MSTORE PUSH1 0xE PUSH1 0x20 SWAP1 DUP2 MSTORE PUSH1 0x40 DUP1 DUP4 KECCAK256 CALLER DUP1 DUP6 MSTORE SWAP3 MSTORE SWAP1 SWAP2 KECCAK256 DUP3 SWAP1 SSTORE PUSH2 0x8E4 SWAP1 DUP3 PUSH2 0xE52 JUMP JUMPDEST POP JUMP JUMPDEST PUSH2 0x8EF PUSH2 0x9DB JUMP JUMPDEST PUSH2 0x93B JUMPI PUSH1 0x40 MLOAD PUSH3 0x461BCD PUSH1 0xE5 SHL DUP2 MSTORE PUSH1 0x20 PUSH1 0x4 DUP3 ADD MSTORE PUSH1 0x1F PUSH1 0x24 DUP3 ADD MSTORE PUSH32 0x43757272656E7420746F75726E616D656E74207374696C6C2061637469766500 PUSH1 0x44 DUP3 ADD MSTORE PUSH1 0x64 ADD PUSH2 0x564 JUMP JUMPDEST PUSH1 0xB SLOAD PUSH1 0x0 SWAP1 DUP2 MSTORE PUSH1 0xD PUSH1 0x20 MSTORE PUSH1 0x40 SWAP1 KECCAK256 PUSH1 0x21 ADD SLOAD PUSH1 0xFF AND ISZERO DUP1 ISZERO PUSH2 0x973 JUMPI POP PUSH1 0xB SLOAD PUSH1 0x0 SWAP1 DUP2 MSTORE PUSH1 0xD PUSH1 0x20 MSTORE PUSH1 0x40 SWAP1 KECCAK256 PUSH1 0x1 ADD SLOAD ISZERO ISZERO JUMPDEST ISZERO PUSH2 0x983 JUMPI PUSH2 0x983 PUSH1 0xB SLOAD PUSH2 0xC2C JUMP JUMPDEST PUSH1 0xB SLOAD PUSH2 0x98E PUSH2 0x810 JUMP JUMPDEST PUSH1 0xB DUP2 SWAP1 SSTORE PUSH2 0x99C SWAP1 PUSH2 0x1035 JUMP JUMPDEST PUSH1 0xB SLOAD PUSH1 0x40 DUP1 MLOAD SWAP2 DUP3 MSTORE PUSH1 0x20 DUP3 ADD DUP4 SWAP1 MSTORE PUSH32 0x5F40D7A919DB0886CD0E1A9532B184C6E7E3314F6A47020DC42228633EE926CE SWAP2 ADD PUSH1 0x40 MLOAD DUP1 SWAP2 SUB SWAP1 LOG1 POP JUMP JUMPDEST PUSH1 0x0 PUSH1 0xB SLOAD PUSH2 0x9E8 PUSH2 0x810 JUMP JUMPDEST GT SWAP1 POP SWAP1 JUMP JUMPDEST PUSH1 0xA SLOAD PUSH1 0x1 PUSH1 0x1 PUSH1 0xA0 SHL SUB AND CALLER EQ PUSH2 0xA18 JUMPI PUSH1 0x40 MLOAD PUSH3 0x461BCD PUSH1 0xE5 SHL DUP2 MSTORE PUSH1 0x4 ADD PUSH2 0x564 SWAP1 PUSH2 0x12F5 JUMP JUMPDEST PUSH1 0x1 PUSH1 0x1 PUSH1 0xA0 SHL SUB DUP2 AND PUSH2 0xA6E JUMPI PUSH1 0x40 MLOAD PUSH3 0x461BCD PUSH1 0xE5 SHL DUP2 MSTORE PUSH1 0x20 PUSH1 0x4 DUP3 ADD DUP2 SWAP1 MSTORE PUSH1 0x24 DUP3 ADD MSTORE PUSH32 0x4E6577206F776E65722063616E6E6F74206265207A65726F2061646472657373 PUSH1 0x44 DUP3 ADD MSTORE PUSH1 0x64 ADD PUSH2 0x564 JUMP JUMPDEST PUSH1 0xA DUP1 SLOAD PUSH1 0x1 PUSH1 0x1 PUSH1 0xA0 SHL SUB NOT AND PUSH1 0x1 PUSH1 0x1 PUSH1 0xA0 SHL SUB SWAP3 SWAP1 SWAP3 AND SWAP2 SWAP1 SWAP2 OR SWAP1 SSTORE JUMP JUMPDEST PUSH1 0xA SLOAD PUSH1 0x1 PUSH1 0x1 PUSH1 0xA0 SHL SUB AND CALLER EQ PUSH2 0xABA JUMPI PUSH1 0x40 MLOAD PUSH3 0x461BCD PUSH1 0xE5 SHL DUP2 MSTORE PUSH1 0x4 ADD PUSH2 0x564 SWAP1 PUSH2 0x12F5 JUMP JUMPDEST PUSH1 0xC SLOAD DUP1 PUSH2 0xB0A JUMPI PUSH1 0x40 MLOAD PUSH3 0x461BCD PUSH1 0xE5 SHL DUP2 MSTORE PUSH1 0x20 PUSH1 0x4 DUP3 ADD MSTORE PUSH1 0x19 PUSH1 0x24 DUP3 ADD MSTORE PUSH32 0x4E6F20686F757365206665657320746F20776974686472617700000000000000 PUSH1 0x44 DUP3 ADD MSTORE PUSH1 0x64 ADD PUSH2 0x564 JUMP JUMPDEST PUSH1 0x0 PUSH1 0xC SSTORE PUSH1 0xA SLOAD PUSH1 0x40 MLOAD PUSH4 0xA9059CBB PUSH1 0xE0 SHL DUP2 MSTORE PUSH1 0x1 PUSH1 0x1 PUSH1 0xA0 SHL SUB SWAP2 DUP3 AND PUSH1 0x4 DUP3 ADD MSTORE PUSH1 0x24 DUP2 ADD DUP4 SWAP1 MSTORE PUSH32 0x0 SWAP1 SWAP2 AND SWAP1 PUSH4 0xA9059CBB SWAP1 PUSH1 0x44 ADD PUSH1 0x20 PUSH1 0x40 MLOAD DUP1 DUP4 SUB DUP2 PUSH1 0x0 DUP8 GAS CALL ISZERO DUP1 ISZERO PUSH2 0xB83 JUMPI RETURNDATASIZE PUSH1 0x0 DUP1 RETURNDATACOPY RETURNDATASIZE PUSH1 0x0 REVERT JUMPDEST POP POP POP POP PUSH1 0x40 MLOAD RETURNDATASIZE PUSH1 0x1F NOT PUSH1 0x1F DUP3 ADD AND DUP3 ADD DUP1 PUSH1 0x40 MSTORE POP DUP2 ADD SWAP1 PUSH2 0xBA7 SWAP2 SWAP1 PUSH2 0x123F JUMP JUMPDEST PUSH2 0xBE7 JUMPI PUSH1 0x40 MLOAD PUSH3 0x461BCD PUSH1 0xE5 SHL DUP2 MSTORE PUSH1 0x20 PUSH1 0x4 DUP3 ADD MSTORE PUSH1 0x11 PUSH1 0x24 DUP3 ADD MSTORE PUSH17 0x15DA5D1A191C985DD85B0819985A5B1959 PUSH1 0x7A SHL PUSH1 0x44 DUP3 ADD MSTORE PUSH1 0x64 ADD PUSH2 0x564 JUMP JUMPDEST PUSH1 0xA SLOAD PUSH1 0x40 MLOAD DUP3 DUP2 MSTORE PUSH1 0x1 PUSH1 0x1 PUSH1 0xA0 SHL SUB SWAP1 SWAP2 AND SWAP1 PUSH32 0x19F7A31AE4185F3274E252A5A78EC36BA85C01300BC8A800D41D79BE74662A8E SWAP1 PUSH1 0x20 ADD PUSH1 0x40 MLOAD DUP1 SWAP2 SUB SWAP1 LOG2 POP JUMP JUMPDEST PUSH1 0x0 DUP2 DUP2 MSTORE PUSH1 0xD PUSH1 0x20 MSTORE PUSH1 0x40 SWAP1 KECCAK256 PUSH1 0x21 DUP2 ADD SLOAD PUSH1 0xFF AND ISZERO PUSH2 0xC8F JUMPI PUSH1 0x40 MLOAD PUSH3 0x461BCD PUSH1 0xE5 SHL DUP2 MSTORE PUSH1 0x20 PUSH1 0x4 DUP3 ADD MSTORE PUSH1 0x1A PUSH1 0x24 DUP3 ADD MSTORE PUSH32 0x5072697A657320616C7265616479206469737472696275746564000000000000 PUSH1 0x44 DUP3 ADD MSTORE PUSH1 0x64 ADD PUSH2 0x564 JUMP JUMPDEST PUSH1 0x1 DUP2 ADD SLOAD PUSH1 0x0 DUP2 SWAP1 SUB PUSH2 0xCAF JUMPI POP PUSH1 0x21 ADD DUP1 SLOAD PUSH1 0xFF NOT AND PUSH1 0x1 OR SWAP1 SSTORE POP JUMP JUMPDEST PUSH1 0x0 JUMPDEST PUSH1 0xA DUP2 LT ISZERO PUSH2 0xE04 JUMPI PUSH1 0x0 DUP4 PUSH1 0x3 ADD DUP3 PUSH1 0xA DUP2 LT PUSH2 0xCD2 JUMPI PUSH2 0xCD2 PUSH2 0x1336 JUMP JUMPDEST PUSH1 0x3 MUL ADD SLOAD PUSH1 0x1 PUSH1 0x1 PUSH1 0xA0 SHL SUB AND SWAP1 POP DUP1 PUSH2 0xCED JUMPI POP PUSH2 0xE04 JUMP JUMPDEST PUSH1 0x0 PUSH2 0x2710 PUSH1 0x0 DUP5 PUSH1 0xA DUP2 LT PUSH2 0xD05 JUMPI PUSH2 0xD05 PUSH2 0x1336 JUMP JUMPDEST ADD SLOAD PUSH2 0xD11 SWAP1 DUP7 PUSH2 0x1277 JUMP JUMPDEST PUSH2 0xD1B SWAP2 SWAP1 PUSH2 0x1294 JUMP JUMPDEST SWAP1 POP DUP1 ISZERO PUSH2 0xDFA JUMPI PUSH1 0x40 MLOAD PUSH4 0xA9059CBB PUSH1 0xE0 SHL DUP2 MSTORE PUSH1 0x1 PUSH1 0x1 PUSH1 0xA0 SHL SUB DUP4 DUP2 AND PUSH1 0x4 DUP4 ADD MSTORE PUSH1 0x24 DUP3 ADD DUP4 SWAP1 MSTORE PUSH32 0x0 AND SWAP1 PUSH4 0xA9059CBB SWAP1 PUSH1 0x44 ADD PUSH1 0x20 PUSH1 0x40 MLOAD DUP1 DUP4 SUB DUP2 PUSH1 0x0 DUP8 GAS CALL ISZERO DUP1 ISZERO PUSH2 0xD92 JUMPI RETURNDATASIZE PUSH1 0x0 DUP1 RETURNDATACOPY RETURNDATASIZE PUSH1 0x0 REVERT JUMPDEST POP POP POP POP PUSH1 0x40 MLOAD RETURNDATASIZE PUSH1 0x1F NOT PUSH1 0x1F DUP3 ADD AND DUP3 ADD DUP1 PUSH1 0x40 MSTORE POP DUP2 ADD SWAP1 PUSH2 0xDB6 SWAP2 SWAP1 PUSH2 0x123F JUMP JUMPDEST PUSH2 0xDFA JUMPI PUSH1 0x40 MLOAD PUSH3 0x461BCD PUSH1 0xE5 SHL DUP2 MSTORE PUSH1 0x20 PUSH1 0x4 DUP3 ADD MSTORE PUSH1 0x15 PUSH1 0x24 DUP3 ADD MSTORE PUSH21 0x141C9A5E99481D1C985B9CD9995C8819985A5B1959 PUSH1 0x5A SHL PUSH1 0x44 DUP3 ADD MSTORE PUSH1 0x64 ADD PUSH2 0x564 JUMP JUMPDEST POP POP PUSH1 0x1 ADD PUSH2 0xCB2 JUMP JUMPDEST POP PUSH1 0x21 DUP3 ADD DUP1 SLOAD PUSH1 0xFF NOT AND PUSH1 0x1 OR SWAP1 SSTORE PUSH1 0x40 DUP1 MLOAD DUP5 DUP2 MSTORE PUSH1 0x20 DUP2 ADD DUP4 SWAP1 MSTORE PUSH32 0x329F5CD0D1A0C708183708DA49F688D169BFD6E9203310C8D56D4D26C144FAFE SWAP2 ADD PUSH1 0x40 MLOAD DUP1 SWAP2 SUB SWAP1 LOG1 POP POP POP JUMP JUMPDEST PUSH1 0xB SLOAD PUSH1 0x0 SWAP1 DUP2 MSTORE PUSH1 0xD PUSH1 0x20 MSTORE PUSH1 0x40 DUP2 KECCAK256 SWAP1 PUSH1 0xA SWAP1 JUMPDEST PUSH1 0xA DUP2 LT ISZERO PUSH2 0xEA5 JUMPI DUP3 PUSH1 0x3 ADD DUP2 PUSH1 0xA DUP2 LT PUSH2 0xE86 JUMPI PUSH2 0xE86 PUSH2 0x1336 JUMP JUMPDEST PUSH1 0x3 MUL ADD PUSH1 0x1 ADD SLOAD DUP5 GT ISZERO PUSH2 0xE9D JUMPI DUP1 SWAP2 POP PUSH2 0xEA5 JUMP JUMPDEST PUSH1 0x1 ADD PUSH2 0xE68 JUMP JUMPDEST POP PUSH1 0xA DUP2 SUB PUSH2 0xEB4 JUMPI POP POP POP POP JUMP JUMPDEST PUSH1 0x0 PUSH2 0xEC2 PUSH1 0x1 PUSH1 0xA PUSH2 0x12B6 JUMP JUMPDEST SWAP1 POP JUMPDEST DUP2 DUP2 GT ISZERO PUSH2 0xF53 JUMPI PUSH1 0x3 DUP4 ADD PUSH2 0xEDC PUSH1 0x1 DUP4 PUSH2 0x12B6 JUMP JUMPDEST PUSH1 0xA DUP2 LT PUSH2 0xEEC JUMPI PUSH2 0xEEC PUSH2 0x1336 JUMP JUMPDEST PUSH1 0x3 MUL ADD DUP4 PUSH1 0x3 ADD DUP3 PUSH1 0xA DUP2 LT PUSH2 0xF05 JUMPI PUSH2 0xF05 PUSH2 0x1336 JUMP JUMPDEST DUP3 SLOAD PUSH1 0x3 SWAP2 SWAP1 SWAP2 MUL SWAP2 SWAP1 SWAP2 ADD DUP1 SLOAD PUSH1 0x1 PUSH1 0x1 PUSH1 0xA0 SHL SUB NOT AND PUSH1 0x1 PUSH1 0x1 PUSH1 0xA0 SHL SUB SWAP1 SWAP3 AND SWAP2 SWAP1 SWAP2 OR DUP2 SSTORE PUSH1 0x1 DUP1 DUP4 ADD SLOAD SWAP1 DUP3 ADD SSTORE PUSH1 0x2 SWAP2 DUP3 ADD SLOAD SWAP2 ADD SSTORE DUP1 PUSH2 0xF4B DUP2 PUSH2 0x134C JUMP JUMPDEST SWAP2 POP POP PUSH2 0xEC5 JUMP JUMPDEST POP PUSH1 0x40 MLOAD DUP1 PUSH1 0x60 ADD PUSH1 0x40 MSTORE DUP1 DUP6 PUSH1 0x1 PUSH1 0x1 PUSH1 0xA0 SHL SUB AND DUP2 MSTORE PUSH1 0x20 ADD DUP5 DUP2 MSTORE PUSH1 0x20 ADD TIMESTAMP DUP2 MSTORE POP DUP3 PUSH1 0x3 ADD DUP3 PUSH1 0xA DUP2 LT PUSH2 0xF8D JUMPI PUSH2 0xF8D PUSH2 0x1336 JUMP JUMPDEST PUSH1 0x3 MUL ADD PUSH1 0x0 DUP3 ADD MLOAD DUP2 PUSH1 0x0 ADD PUSH1 0x0 PUSH2 0x100 EXP DUP2 SLOAD DUP2 PUSH1 0x1 PUSH1 0x1 PUSH1 0xA0 SHL SUB MUL NOT AND SWAP1 DUP4 PUSH1 0x1 PUSH1 0x1 PUSH1 0xA0 SHL SUB AND MUL OR SWAP1 SSTORE POP PUSH1 0x20 DUP3 ADD MLOAD DUP2 PUSH1 0x1 ADD SSTORE PUSH1 0x40 DUP3 ADD MLOAD DUP2 PUSH1 0x2 ADD SSTORE SWAP1 POP POP DUP4 PUSH1 0x1 PUSH1 0x1 PUSH1 0xA0 SHL SUB AND PUSH32 0xC3D569BAB9B8A4ED0F3F5808A8A5F9B046AC3E6B9B15607815EF8B40642A13D9 PUSH1 0xB SLOAD DUP6 DUP5 PUSH1 0x1 PUSH2 0x1011 SWAP2 SWAP1 PUSH2 0x12C9 JUMP JUMPDEST PUSH1 0x40 DUP1 MLOAD SWAP4 DUP5 MSTORE PUSH1 0x20 DUP5 ADD SWAP3 SWAP1 SWAP3 MSTORE SWAP1 DUP3 ADD MSTORE PUSH1 0x60 ADD PUSH1 0x40 MLOAD DUP1 SWAP2 SUB SWAP1 LOG2 POP POP POP POP JUMP JUMPDEST PUSH1 0x0 DUP2 DUP2 MSTORE PUSH1 0xD PUSH1 0x20 MSTORE PUSH1 0x40 DUP2 KECCAK256 DUP3 DUP2 SSTORE PUSH1 0x1 DUP2 ADD DUP3 SWAP1 SSTORE PUSH1 0x2 DUP2 ADD DUP3 SWAP1 SSTORE PUSH1 0x21 DUP2 ADD DUP1 SLOAD PUSH1 0xFF NOT AND SWAP1 SSTORE PUSH1 0x22 DUP2 ADD DUP3 SWAP1 SSTORE SWAP1 JUMPDEST PUSH1 0xA DUP2 LT ISZERO PUSH2 0x10F7 JUMPI PUSH1 0x40 MLOAD DUP1 PUSH1 0x60 ADD PUSH1 0x40 MSTORE DUP1 PUSH1 0x0 PUSH1 0x1 PUSH1 0x1 PUSH1 0xA0 SHL SUB AND DUP2 MSTORE PUSH1 0x20 ADD PUSH1 0x0 DUP2 MSTORE PUSH1 0x20 ADD PUSH1 0x0 DUP2 MSTORE POP DUP3 PUSH1 0x3 ADD DUP3 PUSH1 0xA DUP2 LT PUSH2 0x10AE JUMPI PUSH2 0x10AE PUSH2 0x1336 JUMP JUMPDEST DUP3 MLOAD PUSH1 0x3 SWAP2 SWAP1 SWAP2 MUL SWAP2 SWAP1 SWAP2 ADD DUP1 SLOAD PUSH1 0x1 PUSH1 0x1 PUSH1 0xA0 SHL SUB NOT AND PUSH1 0x1 PUSH1 0x1 PUSH1 0xA0 SHL SUB SWAP1 SWAP3 AND SWAP2 SWAP1 SWAP2 OR DUP2 SSTORE PUSH1 0x20 DUP3 ADD MLOAD PUSH1 0x1 DUP1 DUP4 ADD SWAP2 SWAP1 SWAP2 SSTORE PUSH1 0x40 SWAP1 SWAP3 ADD MLOAD PUSH1 0x2 SWAP1 SWAP2 ADD SSTORE ADD PUSH2 0x1069 JUMP JUMPDEST POP POP POP JUMP JUMPDEST PUSH1 0x40 MLOAD DUP1 PUSH2 0x140 ADD PUSH1 0x40 MSTORE DUP1 PUSH1 0xA SWAP1 JUMPDEST PUSH2 0x1139 PUSH1 0x40 MLOAD DUP1 PUSH1 0x60 ADD PUSH1 0x40 MSTORE DUP1 PUSH1 0x0 PUSH1 0x1 PUSH1 0x1 PUSH1 0xA0 SHL SUB AND DUP2 MSTORE PUSH1 0x20 ADD PUSH1 0x0 DUP2 MSTORE PUSH1 0x20 ADD PUSH1 0x0 DUP2 MSTORE POP SWAP1 JUMP JUMPDEST DUP2 MSTORE PUSH1 0x20 ADD SWAP1 PUSH1 0x1 SWAP1 SUB SWAP1 DUP2 PUSH2 0x110C JUMPI SWAP1 POP POP SWAP1 JUMP JUMPDEST DUP1 CALLDATALOAD PUSH1 0x1 PUSH1 0x1 PUSH1 0xA0 SHL SUB DUP2 AND DUP2 EQ PUSH2 0x1166 JUMPI PUSH1 0x0 DUP1 REVERT JUMPDEST SWAP2 SWAP1 POP JUMP JUMPDEST PUSH1 0x0 DUP1 PUSH1 0x40 DUP4 DUP6 SUB SLT ISZERO PUSH2 0x117E JUMPI PUSH1 0x0 DUP1 REVERT JUMPDEST DUP3 CALLDATALOAD SWAP2 POP PUSH2 0x118E PUSH1 0x20 DUP5 ADD PUSH2 0x114F JUMP JUMPDEST SWAP1 POP SWAP3 POP SWAP3 SWAP1 POP JUMP JUMPDEST PUSH2 0x3C0 DUP2 ADD DUP2 DUP4 PUSH1 0x0 JUMPDEST PUSH1 0xA DUP2 LT ISZERO PUSH2 0x11E2 JUMPI DUP2 MLOAD DUP1 MLOAD PUSH1 0x1 PUSH1 0x1 PUSH1 0xA0 SHL SUB AND DUP5 MSTORE PUSH1 0x20 DUP1 DUP3 ADD MLOAD DUP2 DUP7 ADD MSTORE PUSH1 0x40 SWAP2 DUP3 ADD MLOAD SWAP2 DUP6 ADD SWAP2 SWAP1 SWAP2 MSTORE PUSH1 0x60 SWAP1 SWAP4 ADD SWAP3 SWAP1 SWAP2 ADD SWAP1 PUSH1 0x1 ADD PUSH2 0x11A1 JUMP JUMPDEST POP POP POP SWAP3 SWAP2 POP POP JUMP JUMPDEST PUSH1 0x0 PUSH1 0x20 DUP3 DUP5 SUB SLT ISZERO PUSH2 0x11FD JUMPI PUSH1 0x0 DUP1 REVERT JUMPDEST POP CALLDATALOAD SWAP2 SWAP1 POP JUMP JUMPDEST PUSH1 0x0 PUSH1 0x20 DUP3 DUP5 SUB SLT ISZERO PUSH2 0x1216 JUMPI PUSH1 0x0 DUP1 REVERT JUMPDEST PUSH2 0x121F DUP3 PUSH2 0x114F JUMP JUMPDEST SWAP4 SWAP3 POP POP POP JUMP JUMPDEST PUSH1 0x0 PUSH1 0x20 DUP3 DUP5 SUB SLT ISZERO PUSH2 0x1238 JUMPI PUSH1 0x0 DUP1 REVERT JUMPDEST POP MLOAD SWAP2 SWAP1 POP JUMP JUMPDEST PUSH1 0x0 PUSH1 0x20 DUP3 DUP5 SUB SLT ISZERO PUSH2 0x1251 JUMPI PUSH1 0x0 DUP1 REVERT JUMPDEST DUP2 MLOAD DUP1 ISZERO ISZERO DUP2 EQ PUSH2 0x121F JUMPI PUSH1 0x0 DUP1 REVERT JUMPDEST PUSH4 0x4E487B71 PUSH1 0xE0 SHL PUSH1 0x0 MSTORE PUSH1 0x11 PUSH1 0x4 MSTORE PUSH1 0x24 PUSH1 0x0 REVERT JUMPDEST DUP1 DUP3 MUL DUP2 ISZERO DUP3 DUP3 DIV DUP5 EQ OR PUSH2 0x128E JUMPI PUSH2 0x128E PUSH2 0x1261 JUMP JUMPDEST SWAP3 SWAP2 POP POP JUMP JUMPDEST PUSH1 0x0 DUP3 PUSH2 0x12B1 JUMPI PUSH4 0x4E487B71 PUSH1 0xE0 SHL PUSH1 0x0 MSTORE PUSH1 0x12 PUSH1 0x4 MSTORE PUSH1 0x24 PUSH1 0x0 REVERT JUMPDEST POP DIV SWAP1 JUMP JUMPDEST DUP2 DUP2 SUB DUP2 DUP2 GT ISZERO PUSH2 0x128E JUMPI PUSH2 0x128E PUSH2 0x1261 JUMP JUMPDEST DUP1 DUP3 ADD DUP1 DUP3 GT ISZERO PUSH2 0x128E JUMPI PUSH2 0x128E PUSH2 0x1261 JUMP JUMPDEST PUSH1 0x0 PUSH1 0x1 DUP3 ADD PUSH2 0x12EE JUMPI PUSH2 0x12EE PUSH2 0x1261 JUMP JUMPDEST POP PUSH1 0x1 ADD SWAP1 JUMP JUMPDEST PUSH1 0x20 DUP1 DUP3 MSTORE PUSH1 0x21 SWAP1 DUP3 ADD MSTORE PUSH32 0x4F6E6C79206F776E65722063616E2063616C6C20746869732066756E6374696F PUSH1 0x40 DUP3 ADD MSTORE PUSH1 0x37 PUSH1 0xF9 SHL PUSH1 0x60 DUP3 ADD MSTORE PUSH1 0x80 ADD SWAP1 JUMP JUMPDEST PUSH4 0x4E487B71 PUSH1 0xE0 SHL PUSH1 0x0 MSTORE PUSH1 0x32 PUSH1 0x4 MSTORE PUSH1 0x24 PUSH1 0x0 REVERT JUMPDEST PUSH1 0x0 DUP2 PUSH2 0x135B JUMPI PUSH2 0x135B PUSH2 0x1261 JUMP JUMPDEST POP PUSH1 0x0 NOT ADD SWAP1 JUMP INVALID LOG2 PUSH5 0x6970667358 0x22 SLT KECCAK256 BASEFEE 0xC EXTCODEHASH PUSH7 0xA3641941C08993 PUSH21 0x92BCB020421EC9AD61DF42D3B5A7689684B1590264 PUSH20 0x6F6C634300081C00330000000000000000000000 "
        },
        "methodIdentifiers": {
          "ENTRY_FEE()": "f6d361cc",
          "HOUSE_FEE_PERCENT()": "5537be7f",
          "PRIZE_POOL_PERCENT()": "a7fd35e7",
          "RESET_HOUR_UTC()": "9be7b327",
          "TOP_PLAYERS()": "9d5098dc",
          "cUSD()": "1fccf672",
          "currentDayId()": "987c53a9",
          "distributePrizes()": "7ce52eb6",
          "getContractBalance()": "6f9fb98a",
          "getCurrentDayId()": "adb9d54d",
          "getCurrentLeaderboard()": "491db668",
          "getMyScore()": "f1599f2c",
          "getTournamentInfo(uint256)": "cac766d2",
          "hasPlayed(uint256,address)": "d82ceb88",
          "needsReset()": "e22c2fd2",
          "owner()": "8da5cb5b",
          "payEntry()": "810df2db",
          "playerHighScores(uint256,address)": "1dbd3381",
          "prizePercentages(uint256)": "a448bd23",
          "resetTournament()": "c424b3a8",
          "submitScore(uint256)": "aff0b297",
          "totalHouseFees()": "a6efd7eb",
          "tournaments(uint256)": "7503e1b7",
          "transferOwnership(address)": "f2fde38b",
          "withdrawHouseFees()": "f677b4d4"
        }
      }
    }
  }
}